{
	"contracts/fundme/fund.sol": {
		"Fund": {
			"abi": [
				{
					"inputs": [],
					"name": "fund",
					"outputs": [],
					"stateMutability": "payable",
					"type": "function"
				}
			],
			"devdoc": {
				"kind": "dev",
				"methods": {},
				"version": 1
			},
			"evm": {
				"assembly": "    /* \"contracts/fundme/fund.sol\":63:162  contract Fund {... */\n  mstore(0x40, 0x80)\n  callvalue\n  dup1\n  iszero\n  tag_1\n  jumpi\n  revert(0x00, 0x00)\ntag_1:\n  pop\n  dataSize(sub_0)\n  dup1\n  dataOffset(sub_0)\n  0x00\n  codecopy\n  0x00\n  return\nstop\n\nsub_0: assembly {\n        /* \"contracts/fundme/fund.sol\":63:162  contract Fund {... */\n      mstore(0x40, 0x80)\n      jumpi(tag_1, lt(calldatasize, 0x04))\n      shr(0xe0, calldataload(0x00))\n      dup1\n      0xb60d4288\n      eq\n      tag_2\n      jumpi\n    tag_1:\n      revert(0x00, 0x00)\n        /* \"contracts/fundme/fund.sol\":84:159  function fund() public payable {... */\n    tag_2:\n      tag_3\n      tag_4\n      jump\t// in\n    tag_3:\n      stop\n    tag_4:\n        /* \"contracts/fundme/fund.sol\":146:150  1e18 */\n      0x0de0b6b3a7640000\n        /* \"contracts/fundme/fund.sol\":134:143  msg.value */\n      callvalue\n        /* \"contracts/fundme/fund.sol\":134:150  msg.value > 1e18 */\n      gt\n        /* \"contracts/fundme/fund.sol\":126:151  require(msg.value > 1e18) */\n      tag_6\n      jumpi\n      revert(0x00, 0x00)\n    tag_6:\n        /* \"contracts/fundme/fund.sol\":84:159  function fund() public payable {... */\n      jump\t// out\n\n    auxdata: 0xa2646970667358221220400ad3cd4ee2e3bf9713d04a42a51ad6acc1dbf5a75185f676e6aba23c44148164736f6c634300081e0033\n}\n",
				"bytecode": {
					"linkReferences": {},
					"object": "6080604052348015600e575f5ffd5b50607180601a5f395ff3fe608060405260043610601b575f3560e01c8063b60d428814601f575b5f5ffd5b60256027565b005b670de0b6b3a764000034116039575f5ffd5b56fea2646970667358221220400ad3cd4ee2e3bf9713d04a42a51ad6acc1dbf5a75185f676e6aba23c44148164736f6c634300081e0033",
					"opcodes": "PUSH1 0x80 PUSH1 0x40 MSTORE CALLVALUE DUP1 ISZERO PUSH1 0xE JUMPI PUSH0 PUSH0 REVERT JUMPDEST POP PUSH1 0x71 DUP1 PUSH1 0x1A PUSH0 CODECOPY PUSH0 RETURN INVALID PUSH1 0x80 PUSH1 0x40 MSTORE PUSH1 0x4 CALLDATASIZE LT PUSH1 0x1B JUMPI PUSH0 CALLDATALOAD PUSH1 0xE0 SHR DUP1 PUSH4 0xB60D4288 EQ PUSH1 0x1F JUMPI JUMPDEST PUSH0 PUSH0 REVERT JUMPDEST PUSH1 0x25 PUSH1 0x27 JUMP JUMPDEST STOP JUMPDEST PUSH8 0xDE0B6B3A7640000 CALLVALUE GT PUSH1 0x39 JUMPI PUSH0 PUSH0 REVERT JUMPDEST JUMP INVALID LOG2 PUSH5 0x6970667358 0x22 SLT KECCAK256 BLOCKHASH EXP 0xD3 0xCD 0x4E 0xE2 CALLF 0xBF97 SGT 0xD0 BLOBBASEFEE TIMESTAMP 0xA5 BYTE 0xD6 0xAC 0xC1 0xDB CREATE2 0xA7 MLOAD DUP6 0xF6 PUSH23 0xE6ABA23C44148164736F6C634300081E00330000000000 "
				},
				"gasEstimates": {
					"creation": {
						"codeDepositCost": "22600",
						"executionCost": "73",
						"totalCost": "22673"
					},
					"external": {
						"fund()": "119"
					}
				},
				"methodIdentifiers": {
					"fund()": "b60d4288"
				}
			},
			"storageLayout": {
				"storage": [],
				"types": null
			},
			"userdoc": {
				"kind": "user",
				"methods": {},
				"version": 1
			}
		}
	}
}